:020000040800F2
:10000000E0090020B1220008C1220008C322000834
:1000100000000000000000000000000000000000E0
:10002000000000000000000000000000C5220008E1
:100030000000000000000000C7220008C9220008DC
:100040001F1900082B1D0008FB1F00087F22000855
:10005000DD220008DF220008E1220008E322000878
:10006000E5220008E7220008E9220008EB22000848
:10007000ED220008EF220008F1220008F322000818
:10008000F5220008F722000800000000F92200080D
:10009000FB220008FD220008FF22000801230008BF
:1000A000032300080523000807230008092300088C
:1000B0000B230008000000000D23000800000000D2
:1000C000F1B5A4B00C0015001E0022AA44487844E3
:1000D000FF300F3003C803C2049402AC0020E0627A
:1000E00000E0ED1968460021418022AB0022D24396
:1000F0002900801C01F0EFF80700012804DA2878B5
:10010000471EBF41FF43FF0F68464088252801D1A5
:100110007B1E00E03B00012B07DB2A0002A924988C
:1001200001F0BFF8002800D5BFE2684640882528C6
:1001300007D100206061A061E06120626062A0627E
:1001400008E0684640880028CBD1E06AAFE20100B1
:10015000012008436D1C29782029F8D023290ED0CE
:100160002B2904D02D2907D030290BD00DE0010018
:100170000220084380B2EDE701000420F9E7010006
:100180000820F6E701001020F3E72A290ED1316894
:100190000A1D326009686163002905D54A4262631D
:1001A00001000420084380B26D1C12E0002161634D
:1001B0000AE0626B264B9A4205D093009A185200CF
:1001C0008918303961636D1C29780A00303A0A2A8F
:1001D000EFD329782E2905D00021C94321631FE0E0
:1001E000002000006D1C29782A2906D131680A1DDB
:1001F0003260096821636D1C12E0002121630AE06E
:10020000226B134B9A4205D093009A18520089181A
:10021000303921636D1C29780A00303A0A2AEFD35D
:100220002087297809487844223001F062F80028B4
:1002300001D028786D1C3A216054605C682809D18F
:100240002978682906D13A2062210AE09C1F000023
:10025000FFFFFF7F6C2806D128786C2803D13A2055
:10026000712121546D1C13A820612A7810002538B3
:1002700026D01C3800D17FE0001F02287CD913381B
:1002800000D1A6E0093877D0801E00D144E1401E9D
:1002900000D1EBE0401E02286ED9001F00D1E5E03E
:1002A000401F3FD0401E00D193E0401E2CD0C01E06
:1002B0000CD0801E00D18CE0C01E00D189E04DE141
:1002C0006169481C606113A8252253E13A20205C33
:1002D0006C28306814D0011D31600068E060226B2A
:1002E000002A02D501F00FF808E0002101F013F810
:1002F000002802D0E168401A00E0206BA0613AE1DA
:10030000011D3160026822E13068011D3160026820
:100310000020C0430021104002AA03C213A8E060DD
:100320007821F5E03A20205C622817D0682806D0B2
:100330006A280BD06C2818D0712807D015E03068D7
:10034000011D3160E16A0068018014E13268101D0E
:100350003060E06AC117126803C20CE13068011D09
:100360003160E16A0068017005E13068011D3160AB
:10037000E16A00680160FEE03068C01D0721884323
:10038000306001000831316003C802AB03C30029AB
:1003900005D56169481C606113A82D230FE0208FEB
:1003A000810705D56169481C606113A82B2306E00D
:1003B000C00705D56169481C606113A82023435418
:1003C000606913A90818E060110002A800F0E4FBBE
:1003D000D1E03A20235C6C2B01D130680FE0712B07
:1003E00001D1306802E06A2B306808D1C01D0721B6
:1003F0008843306001000831316003C803E0011D0B
:1004000031600068002102AF03C7682B05D102A844
:1004100003C880B2002102AB0FE0622B05D102A815
:1004200003C8C0B2002102AB07E0742B01D07A2BC5
:1004300004D102AB02A803C8002103C33820205C0A
:10044000000760D502A803C8002901D100285AD0AE
:1004500020201043782856D1616913A830234354D3
:10046000491C481C606113A842544CE03A20205CAF
:1004700062280CD0682810D06A281AD06C2822D0A4
:10048000712816D074281ED07A280CD01BE0306852
:10049000011D3160006840B219E03068011D316013
:1004A000006800B213E03068011D3160006800216F
:1004B0000EE03068C01D072188433060010008311C
:1004C000316003C804E03068011D31600068C11765
:1004D00002AB03C3002905DA6169481C606113A8F7
:1004E0002D230FE0208F810705D56169481C6061CD
:1004F00013A82B2306E0C00705D56169481C60617D
:1005000013A820234354606913A90818E060110060
:1005100002A800F090FA2EE03A20205C6C2809D066
:100520006169481C60613068021D326013AA00686E
:10053000505420E03068011D3160694600688880B1
:1005400001A8002141800020C043206301AA02A924
:10055000249800F0AFF800280DD5A6E06169481C8A
:10056000606113A825234354002A04D06169481C04
:10057000606113A842546D1C606B6169401A216A66
:10058000401AA169401A616A401AE169401AA16AD9
:10059000401A12903820205C400710D46846202171
:1005A0000170002708E001236A4602A9249800F0A0
:1005B00078FE002879D17F1C12988742F3DB6369AB
:1005C00013AA02A9249800F06CFE00286DD1684699
:1005D00030210170206A0190002708E001236A465B
:1005E00002A9249800F05DFE00285ED17F1C0198CE
:1005F0008742F3DBA369E26802A9249800F051FE68
:10060000002852D1684630210170606A01900027AD
:1006100008E001236A4602A9249800F042FE00285F
:1006200043D17F1C01988742F3DBE769A069E16849
:10063000081801900EE0019801780498249A9047D8
:100640000490002831D0E06A401CE0620198401C10
:1006500001907F1E002FEED1684630210170A06A04
:10066000019008E001236A4602A9249800F019FECF
:1006700000281AD17F1C01988742F3DB3820205CC8
:10068000400700D42EE5684620210170002700E0D5
:100690007F1C1298874200DB24E501236A4602A9E9
:1006A000249800F0FEFD0028F2D00020C04325B0C1
:1006B000F0BD0000F4B59AB007000C00206B0028D4
:1006C00000D50E48029000F032FE616B08180390CE
:1006D00007AA09487844203003C803C23820205CA8
:1006E000400702D4039841280AD209A80490402068
:1006F00003900020059011E0F81A0000FFFFFF7F33
:1007000000F01AFE04900028F3D10020C04390E1CD
:100710001A98801C1A900298801B02900298012857
:1007200000DABBE007AA1A98018800A8401C00F074
:100730005FFE060000D5CCE01A980088002802D1A0
:10074000761E00D5C5E00298B04200DAA6E06069E6
:1007500003998219914200D390E0002161634142E4
:10076000206A081AA169401A616A401AE169401AB0
:10077000A16A401A06903820205C400711D46846D0
:1007800020210170002509E001236A46210038007C
:1007900000F087FD002800D09BE06D1C0698854284
:1007A000F2DB6369049A2100380000F07AFD00282A
:1007B00000D08EE0684630210170206A019000254B
:1007C00009E001236A462100380000F06AFD002894
:1007D00000D07EE06D1C01988542F2DBA369E268DF
:1007E0002100380000F05DFD002872D168463021FC
:1007F0000170606A0190002508E001236A4621002B
:10080000380000F04EFD002863D16D1C0198854230
:10081000F3DBE369A069E1680A182100380000F001
:1008200040FD002855D1684630210170A06A019032
:10083000002508E001236A462100380000F031FD60
:10084000002846D16D1C01988542F3DB3820205CDE
:10085000400710D5684620210170002508E00123DB
:100860006A462100380000F01CFD002831D16D1CC3
:1008700006988542F3DB002005906061320000A9F4
:10088000491C6069049B181800F0BEFD606980195E
:1008900060611A980088002800D039E70598002880
:1008A00000D0BFE0606B6169401A216A401AA169FB
:1008B000401A616A401AE169401AA16A401A03901D
:1008C0003820205C40071DD468462021017000209C
:1008D00013E00020C0430590A4E001256E46317866
:1008E000A068B847A0600028F3D0E06A401CE0622E
:1008F000761C6D1EF3D10198401C0190019803995C
:100900008842EADB6369049A2100380000F0C9FCE0
:100910000028DED1684630210170206A0190002055
:100920000FE001256E463178A068B847A060002826
:10093000CFD0E06A401CE062761C6D1EF3D10298B5
:10094000401C0290029801998842EADBA369E268A0
:100950002100380000F0A5FC0028BAD168463021FB
:100960000170606A019000200FE001256E46317829
:10097000A068B847A0600028ABD0E06A401CE062E5
:10098000761C6D1EF3D10298401C029002980199CA
:100990008842EADBE369A069E1680A1821003800AF
:1009A00000F07FFC002894D1684630210170A06AD5
:1009B000029000200FE001256E463178A068B8470C
:1009C000A060002885D0E06A401CE062761C6D1EA5
:1009D000F3D10198401C0190019802998842EADB0A
:1009E0003820205C40071AD568462021017000207D
:1009F00010E001256E463178A068B847A060002855
:100A000000D166E7E06A401CE062761C6D1EF2D100
:100A10000198401C0190019803998842E9DB00206D
:100A200060616063049809A9884201D000F01AFD52
:100A300005981BB0F0BDF2B584B006003069019096
:100A40006846027C6F2A01D1082006E0202111436C
:100A5000782901D00A2000E0102000903C2703CE26
:100A6000083E04000D00642A01D0692A07D100293C
:100A700005DA00200021001BA94104000D00002D13
:100A800011D1002C0FD1306B00280CD10098082810
:100A90003AD13820305C000736D53B2701983B30EF
:100AA0003021017030E07F1E029720002900009A5B
:100AB000D31700F01BFD3032D2B23A2A03DB68466E
:100AC000007C513812180199CA5520002900009A5B
:100AD000D31700F00BFD04000D0001D1002C04D051
:100AE000F0680199C9198842DDD3009808280BD114
:100AF0003820305C000707D50198C05D302803D04E
:100B00007F1E01983021C1553C20C01BB061019966
:100B1000C919F160316B884206DA081A3062308FE9
:100B20001B490140318710E000290ED53821715C46
:100B300014220A40102A08D1716B7269891A326A2C
:100B4000891A0F1A012F00DB376205B0F0BDF4B52A
:100B500004000D0000260F4F14E0C00707D5320037
:100B60003B002000290000F0F6FC04000D00009876
:100B7000401000903000390032003B0000F0EBFCE8
:100B800006000F0000980028E7D120002900F4BDDE
:100B9000EFFF000000002440F3B591B007AD02AABA
:100BA00003C803C212A800782021014300916129E3
:100BB0000CD01198006B002802D51198062104E092
:100BC00004D1672902D1119801210163119841686C
:100BD0009D4A080D1040904225D1080312D111986A
:100BE000006800280ED111980321816112A80078B5
:100BF00061381A2842D32348784488300090032271
:100C000000990BE011980321816112A800786138E6
:100C10001A282FD31C4979446E3103221198C068D9
:100C200000F0F2FBE0E1012817DA119800F06AFD0C
:100C3000012812DB002700200099612931D1119988
:100C4000C96830220A70491C119A4B1CD36012AA41
:100C50001278612A1ED178221DE0119949687B4AD9
:100C60000A407B491143119A51607A49471A002082
:100C7000C043E1E7054979441231CEE7044878449E
:100C80000E30BBE780150000741500006C150000E5
:100C90007015000058220A7011994969891C119A2F
:100CA0005161002803D100246846848092E10098B5
:100CB000612800D09DE01198046B002C01D52124FF
:100CC00000E0641C24B2661C6A4603C803C202A882
:100CD00003C80022002300F039FD02AA684603C8B9
:100CE00002D280231B06594003C2381F6946888000
:100CF00068460021017707AF7F1C00E0FF1D012E31
:100D00002EDB02A803C80022002300F038FD27D202
:100D10001C2102A800F04CFD02A803C800F0D6FD7B
:100D20000500F61F012E09DB00F0FAFD02000B00A2
:100D300002A803C800F06BFE02AA03C2FF1D072031
:100D400004E07F1E2907090F39702D11012D01DBE9
:100D5000401EF6D5401ED1D47F1E00213970F9E720
:100D600007A8401C391A07AD6D1CA14200DA0C001F
:100D700024B2200034D4884206DA07A90918497839
:100D8000082901DB0F2100E0002107AA121801E069
:100D9000641E521E401E13788B42F9D00F2904D1D5
:100DA00007A909184A78521C4A70002806D507ADD1
:100DB000641C019800B2001D6946888024B2601E40
:100DC0000ED429180A783032D2B23A2A03DB12AB99
:100DD0001B783A3BD2180A70401E491E0028F1D5F4
:100DE0001198006B002800D4F4E01198611E016393
:100DF000F0E002A803C80022002300F0A7FC06D2FE
:100E000002AA02A803C880231B06594003C23FB2AE
:100E100076487843764900F071FE6946888007205D
:100E2000019909B2401A0590012805DB024602A883
:100E300003C8FFF78CFE2DE04142049100246D4D64
:100E400000266D4F1DE000BFFF070000FFFF0F8071
:100E50000000E03FFE030000C00707D532003B0062
:100E60002000290000F077FB04000D0004984010DA
:100E700004903000390032003B0000F06CFB0600AB
:100E80000F0004980028E7D102A803C822002B0015
:100E900000F05FFE02AA03C20098662803D1019801
:100EA00000B20A3000E006201199096B081804907E
:100EB000142801DB1320049068463021017707AC29
:100EC000641C0498012841DB02A803C800F010FD4F
:100ED000050008340594042428000A2100F022FEAD
:100EE0000E0028000A2100F01DFE05000598401E96
:100EF00006903036067028000A2100F013FE0E001E
:100F000028000A2100F00EFE05000698401E0590FC
:100F100030360670641EDFD1059C0834049808380A
:100F200004900128CDDB02A803C800F0E1FC00F02A
:100F300001FD02000B0002A803C800F068FD0022BA
:100F40002E4B00F008FB02AA03C2BDE707A8401C15
:100F5000201A07AD6D1C6A4605E0401E019909B2D2
:100F6000491E91806D1C29783029F6D00099662998
:100F700003D1019909B2491C04E0652901D101217D
:100F800000E00021119A126B541824B2A04200DA3A
:100F9000040024B221001DD4814204DA685C3528A3
:100FA00001DB392000E030206A1800E0641E521E88
:100FB000491E13788342F9D0392802D1685C401C5D
:100FC0006854002906D56D1E641C019800B2401CAF
:100FD00069468880019800B2009023B22A0012A8C6
:100FE0000178119800F00CF813B0F0BD977500006F
:100FF000A08601000000F03F0000244084D7974104
:10100000F2B586B0050016001C0000F01CFE406A18
:101010000078694608702F6B012C02DA012400BFAA
:10102000ACA66846017E2020084369460C9A0A86D1
:10103000662804D10C9800B2401C08861BE0672883
:1010400000D090E00C9800B20321C943884200DA36
:1010500090E0B84200DB8DE0401C694608863820ED
:10106000285C000702D4BC4200DA27000C9800B2CA
:101070003F1A00D50027E868A96943180C9A12B2F4
:10108000012A28DA491C30221A70012F03DA38228B
:10109000AA5C120703D56A4612784254491CA9611A
:1010A0000C9909B24A42974202DA69467A420A86A4
:1010B0000C9909B24A426A627F18A74200DA3C00E2
:1010C00024B2EC6122003100AB69C01800F09CF939
:1010D000381BA862CFE00C9800B284421ADA2200D2
:1010E0003100180000F090F9A8690019A8610C9A65
:1010F00012B2111B6962012F03DA3821695C0907FA
:1011000006D5E9686A4612780A54E869401CE86125
:10111000AF62B0E03100180000F076F9A8690C99D0
:1011200009B24018641A012F03DA3821695C0907F3
:1011300004D5E9686A4612780A54401CA86124B2B2
:10114000A74200DA3C0024B222000C9800B2311809
:10115000A869EB68181800F057F9A8690019A86188
:10116000381B686287E06846007E612815D16846B2
:10117000702116E0BC4204DA3820285C000700D455
:1011800027007F1E00D500276846007E6728684636
:1011900001D1652105E0452103E0412802D16846DF
:1011A00050210176A9694B1CE86832784254711CC1
:1011B000012F05DA3822AA5C120701D4AB6115E0D1
:1011C0006A461278C2545B1CAB61012F0EDB641EB1
:1011D00024B2A74200DA3C0024B22200C01800F07A
:1011E00013F9A8690019A861381B6862A869E96841
:1011F0000E186846007E3070761C0C9800B20028ED
:1012000003D42B203070761C05E02D213170761C24
:10121000694642420A86002403AF0AE00A2201A876
:1012200000F02CFD02983870684601990186641C14
:101230007F1C0C9909B20129F0DA022C08DA684601
:10124000007E20210143652902D130203070761CB8
:10125000002C09D130203070761C07E0641E03A8F2
:10126000005D30303070761C012CF7DAA869E9682F
:101270000818301AE8613820285C14210140102930
:101280000DD16869A9694018696A4018E969401870
:10129000A96A4018696B884201DA081A286207B007
:1012A000F0BD79B50E0014001D00002005E0F06AC5
:1012B000401CF0620020641C6D1E002D08D02178B7
:1012C000B068009A9047B0600028F0D10020C04379
:1012D00076BD00003000F8B504000F0015001E00B8
:1012E00000F0DCFC33002A003900200000F0E8FCAC
:1012F000F2BDC9B200E0401C02788A4202D0002A46
:10130000F9D100207047010000E0491C0A78002A4A
:10131000FBD1081A7047C9B201E0401C521E002AD6
:1013200003D003788B42F8D170470020704780B516
:1013300000F0B4FC012002BD70B505002C000F3494
:1013400007208443C046C046A54233D2082C04D2AD
:10135000082402E0083000F085F8244802681100F3
:101360000CD1011D0A68002A20D01368A34212D2B2
:10137000111DF7E71D68A5420DD2191D0B68002B42
:10138000F8D11268011D00E0191D0B6893420DD0C1
:101390001D68A542F8D300290CD00D682A681300F7
:1013A000083BA3420AD26A680A600FE000F0A6FC7C
:1013B0000028CFD1C046C046002070BD2B190B605D
:1013C0006E685E60121B0B681A602C600968002949
:1013D00004D04A68002A01D0091D00E00021016004
:1013E000C046C0460835280070BD0000D00100206E
:1013F00070B504000D00160000F050FC320029000A
:10140000200000F053FC70BD124207D08B0706D0BD
:101410000B78491C0370401C521EF7D87047830795
:1014200006D00B78491C0370401C521EF9D170473E
:1014300070B4103A03D378C9103A78C0FBD253077E
:1014400001D318C918C001D508C908C0D20704D3F0
:101450000B880380891C801C002A01D50B7803703F
:1014600070BC7047002800D1704710B508380400E0
:101470002068082836D3400734D1C046C0461A48F1
:101480004168002901D08C4203D26160446019E0B8
:1014900019004B68002B01D0A342F9D30A688B18BE
:1014A0009C421DD3A34204D12368D2180A600C00C9
:1014B00008E04A68002A03D02368E3189A420FD351
:1014C00062604C60616800290AD02268A3188B42D0
:1014D00006D1002303600868101820604868606027
:1014E000C046C04610BD0000D0010020124224D0EA
:1014F000994228D970B500251B4202D00C0000216A
:1015000009E00024012649186441944200D3A41A3A
:101510007641F8D33100012601E0764109D2001866
:1015200064416D41A41A9D41F7D2A4185D41B619DA
:10153000F5D3300022002B0070BD1B42D8D108B576
:1015400000F0F2FB08BD01D19042D3D202000B00A3
:10155000002100207047F0B50E005E400125ED0728
:101560002E40B446AE0ADF184C18F44208D2F742B7
:101570000ED2640D01D07F0D12D100206146F0BD66
:1015800005D1F74201D87F0D05D10020C143F0BD40
:10159000FBD1640DF9D00020C143490549088FE013
:1015A000E419C902DB0229432B43DB0A460DC002C2
:1015B00031438E4630B487B295B27D432E0CADB226
:1015C000140C7C43A419260C240425439CB27C43B0
:1015D000A419190C7943270CC919A4B20F043C4370
:1015E000090C000C97B247432E0CBE193543ADB21F
:1015F000170C4743360CBF19A6B2BF193E0435433A
:10160000240C3E0C36199FB24743BF19BCB23E0CA6
:1016100089191F0C47437F183E043443390C704628
:1016200080B297B247432E0CBE193543ADB2170CAA
:101630004743360CBF19A6B2BF193E043543240CEC
:101640003E0C36199FB24743BF19BCB23E0C8919F4
:101650001F0C47437F183E043443390C77463F0C38
:1016600090B278432E0C80190604ADB22E43050CBF
:10167000A0B22D18120C7A435019020C80B2240C1F
:10168000A4189AB27A43121914042043120C891830
:101690001B0C7B43C91830BCEF0A394203D1B61981
:1016A00040414941641E6F12BF0DE41B0BDBFF1963
:1016B000BC4211DA240500274208AE41784161415D
:1016C00066463143F0BD641C05D1401C6141CF0228
:1016D00001D34908F4E750E75DE738B4012100225F
:1016E0000368001D002B0BD00468001D0C4202D0C3
:1016F0004D466D1E64192260241D1B1FF0D0FAE7B1
:1017000032BC704778B401004C6880221206224037
:1017100001200D4B1C404C600BD10C68002C08D1F3
:101720000CE00C686D00E60F2E434E6064000C6008
:10173000401E4D68EC02F4D52B404B604B681A43B9
:101740004A6072BC704700BFFFFF0F0030B4012435
:1017500064054D00EC420BD85D00EC4208D80C004B
:101760001C4364000443144304D2994200D19042C4
:1017700030BC7047FCD08B42FAD18242F8E730B4DB
:10178000012464054D00EC420BD85D00EC4208D802
:101790000C001C4364000443144304D28B4200D168
:1017A000824230BC7047FCD09942FAD19042F8E7AF
:1017B000F8B504000D00414E6068000D3040B042A5
:1017C00007D16068000302D12068002816D00220EB
:1017D000F2BD002804D12000FFF794FF01286BDA46
:1017E000012D0DDB311A8D420AD36068002802D525
:1017F0000020334901E00020310503C40120F2BD7F
:101800004142A94207DA61682E4A0A4028180005B9
:101810001043606047E08021090662680A406368FF
:101820001B031B0BCE0A1E436660401E2D180023AF
:1018300028003530352803D3626023600020F2BDD4
:10184000280000251E26F643B04204DA2030256821
:10185000666826606360434211D06D1EAD41ED4362
:10186000ED0F2020C01A2668864035432668DE40EA
:1018700067688740374327606068D8406060606869
:10188000104360601048854204D28D420ED120780A
:10189000C0070BD52068401C20602068002805D1B7
:1018A0006068401C60600020C043F2BD60689042E8
:1018B000F9D120680028F6D10020F2BDFF07000012
:1018C0000000F0FFFFFF0F8001000080F4464A187F
:1018D00005D200F00FF801D580174008604700F0EE
:1018E00009F80121C907884200D908004042604731
:1018F0004A1812D2400DC90208430121C907084302
:10190000520D40210901521A521C06D452421F3274
:1019100001D4D0407047C017704700207047FEE7E1
:10192000010009D5F446404200F006F80122D20732
:1019300011436047010000BF42221201D21E004243
:1019400007D002D4521E0018FCD5C10A400512056A
:10195000891870478B4200D1824205D98446100015
:1019600062468C4619006346DF184C18640D7F0DE3
:101970003AD0661C760537D0E61B352E34DCDB0208
:101980002B43DB0A0C0DC9022943C912202E0DDBA3
:101990001700203E06D01F00F741F3405F400026AD
:1019A000012A7741C01871410DD217E01700F741A5
:1019B000F2405740F3415A40B340F3405A400026AA
:1019C000801859410AD3A21C52050FD0C207012F1B
:1019D000724117004008CB0718434908641C2405CE
:1019E0004208AF4170416141F0BC7047641C210561
:1019F0000020F9E76B4010E06B40ABE7F742F3D112
:101A0000E943F1E72442EFD100200021ECE7F0B4F4
:101A10000125ED070F005F40EED40C00871A9C41B2
:101A200005D2C01BA141D219634169406B40AE0A87
:101A3000DF184C18F442E1D2640D7F0DE2D0E61BB2
:101A4000362ED1DCDB022B43DB0AA4460C0DC90287
:101A50002943C90A012E28DC04D1D6075208DF0722
:101A60003A435B08EF0A76429041994114D03942DB
:101A70003BD1B61940414941761C394204D1761C0C
:101A8000001849413942FAD0B9436746B74208D9EC
:101A9000A41B24052143A7E70042EAD13642E8D13E
:101AA000A2E7E40AE10700209EE7202E0BDD203E9E
:101AB0001F00F340F7415F40012A002257417E4258
:101AC000984191410BE01700F741F2405740F34134
:101AD0005A40B340F3405A407E42904199410A0334
:101AE00003D2641EB619404149410027641E2405F3
:101AF0004208AE4178416141F0BC7047CA0F00D046
:101B0000494203105A400DD004B500D3404200F0C2
:101B100009F8009AD20701D34942124200D5404247
:101B200004BD0000094210D088420BD301220023DB
:101B300000185B418B4200D35B1A5241F8D3190065
:101B40001000704701000020704708B500F0EEF863
:101B500008BDF0B40E005E400125ED072E40B446EE
:101B6000AE0ADF184C18F4423BD2F74241D2640D62
:101B700043D07F0D38D0E41BC902DB0229432B433D
:101B8000CF0ADB0A0600B61A9F4104D2641EB619BA
:101B90007F41B6185F416812800D241800188442F6
:101BA00022DAE80C0021B6197F41B61A9F4102D211
:101BB000B6185F413F1C40414941F4D3241C21DD4C
:101BC0002405B6197F41B61A9F4105D33743C6078E
:101BD00037430026012F7041614166463143F0BC16
:101BE0007047FCD1F74205D20020C143490549089E
:101BF000F3E704D00020C143F1E77F0DFAD00020C5
:101C00006146ECE72442FAD1401C61410F03F6D350
:101C10000020E2E780B5124800F089F811A10160C8
:101C200041608160C1600161416181610EA24262D7
:101C30008162C162016341630CA282630DA2C2632F
:101C40000164416401BD10B5054800F070F804005E
:101C50002068002801D1FFF7DDFF200010BD000043
:101C600000000020000000002E00000066616C7380
:101C70006500000074727565000000007CB504000A
:101C80000E00150030002900FFF738FF0090454393
:101C9000701B0190684603C803C476BD80B5024836
:101CA00000F045F8806902BD90000020002804D1B2
:101CB0000EA003C803C200207047017001207047C6
:101CC000002904D10BA003C803C300207047002AD9
:101CD00002D10120C0437047002801D00A78028059
:101CE0000978481E8041C043C00F704700000000C3
:101CF0000000000000000000000000000749086824
:101D0000002801D0002070470722D2430448104029
:101D1000086004490A40111A01607047DC01002084
:101D2000E7090020E01100207047FEE77047704788
:101D300030B583B00121480400F00DF9C0246401DE
:101D400000946846012101710021817103214171D4
:101D50009025ED056946280000F016F921002800BD
:101D600000F047F937BD000038B52F4C200018307F
:101D700000F092F8E0696421FFF7D4FE0021802290
:101D8000520490420ED2294A294B1840401E5060FE
:101D9000284805682B40C0252D061D43056091602D
:101DA00007201060E120400220606160A160E160D6
:101DB00061610C20206100BF23A100BF20A000F0C2
:101DC0001DF900BF26A11CA000F018F92CA100BF2E
:101DD00029A000F013F9FFF7ABFF9025ED05802453
:101DE00024012100280000F006F9322000F009F853
:101DF0002100280000F0FDF8322000F002F8F0E7A2
:101E0000704781B001B40D48009901600168002954
:101E1000FCD102B0704709480168002902D001686E
:101E2000491E0160704700009C01002010E000E0A6
:101E3000FFFFFF0020ED00E020257300D801002007
:101E40000A0D2025730000002053544D33324630D4
:101E5000357820436F727465784D302000000000A3
:101E6000204465766963652072756E6E696E6720C1
:101E70006F6E2020000000002025730A0D00000076
:101E800020202053544D3332303531382D455641C2
:101E90004C20202000000000F0B50400334D2868DD
:101EA0000F260C210140082912D128682968870CC7
:101EB0003740BF1CC80303D42D484743380008E00F
:101EC000A96A2C483140491CFFF72CFE784300E0FA
:101ED000284820602A682848216812091640825D37
:101EE000D14061602A685205520F805CC140A160F8
:101EF000E86AC00501D4214805E02868400401D4FF
:101F0000480800E08808E06080200002E96A49068D
:101F100001D41B4900E001002161E96AC90601D42E
:101F2000144900E0216861610321EA6A0A4001D195
:101F3000A0680EE0EA6A0A40012A01D1206808E0A0
:101F4000EA6A0A40022A04D0E86A0140032901D162
:101F50000848A061F0BD0B4A0029116802D008436F
:101F60001060704781431160704700000410024008
:101F700000093D0000127A003C010020809FD5003E
:101F80001280000014100240F0B5002301229A4094
:101F90000C681440944228D15C000326A640F54307
:101FA0000E79012E01D0022E0FD186682E40866058
:101FB00086684F79A7403743876086889643868036
:101FC00082888E799E401643868002682A4002608D
:101FD00002680E79A64016430660C2681540C560C7
:101FE000C268CD79A5401543C5605B1C102BCDD3CD
:101FF000F0BD8161704701857047FEE70EB400B502
:1020000082B003A900916B46020001210348784485
:102010000A30FEF755F8029906B008476F02000033
:1020200083B03248016801220A4302604168304AA5
:102030000A40426001682F4A0A40026001682E4A45
:102040000A4002602D4942680A404260C26A0F237A
:102050009A43C262026B2A4B13400363426B012313
:102060009A434263002282600192009202681B043C
:1020700013430360026880239B021A400092019A76
:10208000521C0192009A002A04D1019AA023DB007D
:102090009A42EFD102689203D30F0093009A012A6B
:1020A00022D1184A1123136042684260426842609C
:1020B00042681140416041681A040A434260016865
:1020C000802252040A43026001688901FCD54168FC
:1020D000032291434160416802220A434260416801
:1020E0000C220A40082AFAD103B0704700100240BF
:1020F0000CB8FFF8FFFFF6FEFFFFFBFFFFFFC0FF7E
:10210000ACFEFFFF00200240816807E00268116812
:1021100051185368CB18C36008320260C2689142FC
:10212000F4D04A1C826008787047F0B587B001008F
:102130000831029101684908C900029A51180391B7
:1021400000250495059501684908C900441808341C
:1021500040686946C307DB0F4B704008C000201879
:102160000190002725E002A8FFF7CEFF46B202A8A3
:10217000FFF7CAFF69460870BD4210D1019884423A
:1021800001D100F01EF8256868464078002801D08B
:1021900048462D1860682F180834BD42EED06846B6
:1021A000007828706D1C002E08D5761CE4D1BD4245
:1021B000D9D101988442D6D107B0F0BD761ED6D5CC
:1021C000F5E780B5012000F001F801BD80B5C046FB
:1021D000C046024A11001820ABBEFBE726000200F1
:1021E0000000000000000000686A6C747A4C000077
:1021F00000000000000000006E616E004E414E00C5
:10220000696E6600494E460010B507497944183199
:10221000064C7C44163404E0081D0A688918884777
:102220000100A142F8D110BD0800000030000000FC
:10223000ABF4FFFF940000004C0100200000000000
:10224000EBFEFFFF0200000002000000C2000000E1
:102250003C000000000000204C01000000F009F8E4
:10226000002801D0FFF7D0FF0020FFF77DFD00F030
:1022700002F80120704780B500F002F801BDFEE7CA
:1022800007463846FFF7A2FFFBE738B505000C000C
:10229000200000F005F8A04200D00025280032BD43
:1022A00080B50249FFF7ACFD02BD00BFFC00002075
:1022B000014880470148004721200008D12200083A
:1022C0007047FEE77047704780B5FFF7A4FD01BD7A
:1022D000C046C046C046C046FFF7C0FFFEE7FEE767
:1022E000FEE7FEE7FEE7FEE7FEE7FEE7FEE7FEE7C6
:1022F000FEE7FEE7FEE7FEE7FEE7FEE7FEE7FEE7B6
:10230000FEE7FEE7FEE7FEE7FEE7FEE7FEE7E400A6
:10231000F8FFDC00FAFF8100D1001F020401014C2C
:102320000100209C0100204C0100204C0100204CA9
:102330000100203901002020010020DC000B0102F7
:0C23400003040102030406070809000062
:04000005080022D1FC
:00000001FF
